{
  "contractName": "Voting",
  "abi": [
    {
      "anonymous": false,
      "inputs": [
        {
          "indexed": true,
          "internalType": "address",
          "name": "previousOwner",
          "type": "address"
        },
        {
          "indexed": true,
          "internalType": "address",
          "name": "newOwner",
          "type": "address"
        }
      ],
      "name": "OwnershipTransferred",
      "type": "event"
    },
    {
      "anonymous": false,
      "inputs": [
        {
          "indexed": false,
          "internalType": "uint256",
          "name": "proposalId",
          "type": "uint256"
        }
      ],
      "name": "ProposalRegistered",
      "type": "event"
    },
    {
      "anonymous": false,
      "inputs": [],
      "name": "ProposalsRegistrationEnded",
      "type": "event"
    },
    {
      "anonymous": false,
      "inputs": [],
      "name": "ProposalsRegistrationStarted",
      "type": "event"
    },
    {
      "anonymous": false,
      "inputs": [
        {
          "indexed": false,
          "internalType": "address",
          "name": "voter",
          "type": "address"
        },
        {
          "indexed": false,
          "internalType": "uint256",
          "name": "proposalId",
          "type": "uint256"
        }
      ],
      "name": "Voted",
      "type": "event"
    },
    {
      "anonymous": false,
      "inputs": [
        {
          "indexed": false,
          "internalType": "address",
          "name": "voterAddress",
          "type": "address"
        }
      ],
      "name": "VoterRegistered",
      "type": "event"
    },
    {
      "anonymous": false,
      "inputs": [],
      "name": "VotesTallied",
      "type": "event"
    },
    {
      "anonymous": false,
      "inputs": [],
      "name": "VotingSessionEnded",
      "type": "event"
    },
    {
      "anonymous": false,
      "inputs": [],
      "name": "VotingSessionStarted",
      "type": "event"
    },
    {
      "anonymous": false,
      "inputs": [
        {
          "indexed": false,
          "internalType": "enum Voting.WorkflowStatus",
          "name": "previousStatus",
          "type": "uint8"
        },
        {
          "indexed": false,
          "internalType": "enum Voting.WorkflowStatus",
          "name": "newStatus",
          "type": "uint8"
        }
      ],
      "name": "WorkflowStatusChange",
      "type": "event"
    },
    {
      "inputs": [],
      "name": "owner",
      "outputs": [
        {
          "internalType": "address",
          "name": "",
          "type": "address"
        }
      ],
      "stateMutability": "view",
      "type": "function",
      "constant": true
    },
    {
      "inputs": [],
      "name": "renounceOwnership",
      "outputs": [],
      "stateMutability": "nonpayable",
      "type": "function"
    },
    {
      "inputs": [],
      "name": "status",
      "outputs": [
        {
          "internalType": "enum Voting.WorkflowStatus",
          "name": "",
          "type": "uint8"
        }
      ],
      "stateMutability": "view",
      "type": "function",
      "constant": true
    },
    {
      "inputs": [
        {
          "internalType": "address",
          "name": "newOwner",
          "type": "address"
        }
      ],
      "name": "transferOwnership",
      "outputs": [],
      "stateMutability": "nonpayable",
      "type": "function"
    },
    {
      "inputs": [
        {
          "internalType": "address",
          "name": "_address",
          "type": "address"
        }
      ],
      "name": "whitelistVoter",
      "outputs": [],
      "stateMutability": "nonpayable",
      "type": "function"
    },
    {
      "inputs": [],
      "name": "startProposalRegistration",
      "outputs": [],
      "stateMutability": "nonpayable",
      "type": "function"
    },
    {
      "inputs": [
        {
          "internalType": "string",
          "name": "description",
          "type": "string"
        }
      ],
      "name": "addProposal",
      "outputs": [],
      "stateMutability": "nonpayable",
      "type": "function"
    },
    {
      "inputs": [],
      "name": "endProposalRegistration",
      "outputs": [],
      "stateMutability": "nonpayable",
      "type": "function"
    },
    {
      "inputs": [],
      "name": "startVotingSession",
      "outputs": [],
      "stateMutability": "nonpayable",
      "type": "function"
    },
    {
      "inputs": [
        {
          "internalType": "uint256",
          "name": "proposalIndex",
          "type": "uint256"
        }
      ],
      "name": "vote",
      "outputs": [],
      "stateMutability": "nonpayable",
      "type": "function"
    },
    {
      "inputs": [],
      "name": "endVotingSession",
      "outputs": [],
      "stateMutability": "nonpayable",
      "type": "function"
    },
    {
      "inputs": [],
      "name": "votesCalculation",
      "outputs": [],
      "stateMutability": "nonpayable",
      "type": "function"
    },
    {
      "inputs": [],
      "name": "getWinnerInfo",
      "outputs": [
        {
          "internalType": "string",
          "name": "description",
          "type": "string"
        }
      ],
      "stateMutability": "view",
      "type": "function",
      "constant": true
    }
  ],
  "bytecode": "0x608060405234801561001057600080fd5b5061003f61002b610044640100000000026401000000009004565b61004c640100000000026401000000009004565b610110565b600033905090565b60008060009054906101000a900473ffffffffffffffffffffffffffffffffffffffff169050816000806101000a81548173ffffffffffffffffffffffffffffffffffffffff021916908373ffffffffffffffffffffffffffffffffffffffff1602179055508173ffffffffffffffffffffffffffffffffffffffff168173ffffffffffffffffffffffffffffffffffffffff167f8be0079c531659141344cd1fd0a4f28419497f9722a3daafe3b4186f6b6457e060405160405180910390a35050565b61218c80620001206000396000f3fe608060405234801561001057600080fd5b50600436106100ec576000357c0100000000000000000000000000000000000000000000000000000000900480638da5cb5b116100a9578063bddf1ce911610083578063bddf1ce9146101ab578063e85a8f2a146101c7578063ee74c678146101d1578063f2fde38b146101db576100ec565b80638da5cb5b14610179578063a7bfab1614610197578063ab8823fc146101a1576100ec565b80630121b93f146100f15780630f7e28381461010d578063200d2ed21461011757806322bb26f7146101355780632fdae3c514610153578063715018a61461016f575b600080fd5b61010b6004803603810190610106919061168c565b6101f7565b005b6101156104e0565b005b61011f6106dd565b60405161012c919061194d565b60405180910390f35b61013d6106f0565b60405161014a9190611991565b60405180910390f35b61016d60048036038101906101689190611643565b61080d565b005b610177610a14565b005b610181610a9c565b60405161018e9190611909565b60405180910390f35b61019f610ac5565b005b6101a9610c4b565b005b6101c560048036038101906101c09190611616565b610dd1565b005b6101cf61100a565b005b6101d9611190565b005b6101f560048036038101906101f09190611616565b611315565b005b6003600581111561020b5761020a611db2565b5b600360009054906101000a900460ff16600581111561022d5761022c611db2565b5b1461026d576040517f08c379a000000000000000000000000000000000000000000000000000000000815260040161026490611a73565b60405180910390fd5b600460003373ffffffffffffffffffffffffffffffffffffffff1673ffffffffffffffffffffffffffffffffffffffff16815260200190815260200160002060000160009054906101000a900460ff1615156001151514610303576040517f08c379a00000000000000000000000000000000000000000000000000000000081526004016102fa906119f3565b60405180910390fd5b600460003373ffffffffffffffffffffffffffffffffffffffff1673ffffffffffffffffffffffffffffffffffffffff16815260200190815260200160002060000160019054906101000a900460ff1615156000151514610399576040517f08c379a000000000000000000000000000000000000000000000000000000000815260040161039090611b53565b60405180910390fd5b80600460003373ffffffffffffffffffffffffffffffffffffffff1673ffffffffffffffffffffffffffffffffffffffff168152602001908152602001600020600101819055506001600460003373ffffffffffffffffffffffffffffffffffffffff1673ffffffffffffffffffffffffffffffffffffffff16815260200190815260200160002060000160016101000a81548160ff02191690831515021790555060056000828152602001908152602001600020600101600081548092919061046290611d3a565b9190505550600560006001548152602001908152602001600020600101546005600083815260200190815260200160002060010154106104a457806001819055505b7f4d99b957a2bc29a30ebd96a7be8e68fe50a3c701db28a91436490b7d53870ca433826040516104d5929190611924565b60405180910390a150565b6104e861140d565b73ffffffffffffffffffffffffffffffffffffffff16610506610a9c565b73ffffffffffffffffffffffffffffffffffffffff161461055c576040517f08c379a000000000000000000000000000000000000000000000000000000000815260040161055390611ad3565b60405180910390fd5b600260058111156105705761056f611db2565b5b600360009054906101000a900460ff16600581111561059257610591611db2565b5b14156105d3576040517f08c379a00000000000000000000000000000000000000000000000000000000081526004016105ca90611a93565b60405180910390fd5b600060058111156105e7576105e6611db2565b5b600360009054906101000a900460ff16600581111561060957610608611db2565b5b14610649576040517f08c379a000000000000000000000000000000000000000000000000000000000815260040161064090611ab3565b60405180910390fd5b6001600360006101000a81548160ff0219169083600581111561066f5761066e611db2565b5b02179055507f344c25562921d075a298d34b6dd1fd00d36ff293974539dfd4a8c625d9f0064c60405160405180910390a17f0a97a4ee45751e2abf3e4fc8946939630b11b371ea8ae39ccdc3056e98f5cc3f600060016040516106d3929190611968565b60405180910390a1565b600360009054906101000a900460ff1681565b606060058081111561070557610704611db2565b5b600360009054906101000a900460ff16600581111561072757610726611db2565b5b14610767576040517f08c379a000000000000000000000000000000000000000000000000000000000815260040161075e90611a33565b60405180910390fd5b600560006001548152602001908152602001600020600001805461078a90611cd7565b80601f01602080910402602001604051908101604052809291908181526020018280546107b690611cd7565b80156108035780601f106107d857610100808354040283529160200191610803565b820191906000526020600020905b8154815290600101906020018083116107e657829003601f168201915b5050505050905090565b6001600581111561082157610820611db2565b5b600360009054906101000a900460ff16600581111561084357610842611db2565b5b14610883576040517f08c379a000000000000000000000000000000000000000000000000000000000815260040161087a90611af3565b60405180910390fd5b60011515600460003373ffffffffffffffffffffffffffffffffffffffff1673ffffffffffffffffffffffffffffffffffffffff16815260200190815260200160002060000160009054906101000a900460ff16151514610919576040517f08c379a0000000000000000000000000000000000000000000000000000000008152600401610910906119f3565b60405180910390fd5b60fd600254111561095f576040517f08c379a0000000000000000000000000000000000000000000000000000000008152600401610956906119b3565b60405180910390fd5b6040518060400160405280828152602001600081525060056000600254815260200190815260200160002060008201518160000190805190602001906109a69291906114d9565b5060208201518160010155905050600260008154809291906109c790611d3a565b91905055507f92e393e9b54e2f801d3ea4beb0c5e71a21cc34a5d34b77d0fb8a3aa1650dc18f60016002546109fc9190611c00565b604051610a099190611b73565b60405180910390a150565b610a1c61140d565b73ffffffffffffffffffffffffffffffffffffffff16610a3a610a9c565b73ffffffffffffffffffffffffffffffffffffffff1614610a90576040517f08c379a0000000000000000000000000000000000000000000000000000000008152600401610a8790611ad3565b60405180910390fd5b610a9a6000611415565b565b60008060009054906101000a900473ffffffffffffffffffffffffffffffffffffffff16905090565b610acd61140d565b73ffffffffffffffffffffffffffffffffffffffff16610aeb610a9c565b73ffffffffffffffffffffffffffffffffffffffff1614610b41576040517f08c379a0000000000000000000000000000000000000000000000000000000008152600401610b3890611ad3565b60405180910390fd5b60036005811115610b5557610b54611db2565b5b600360009054906101000a900460ff166005811115610b7757610b76611db2565b5b14610bb7576040517f08c379a0000000000000000000000000000000000000000000000000000000008152600401610bae90611a73565b60405180910390fd5b6004600360006101000a81548160ff02191690836005811115610bdd57610bdc611db2565b5b02179055507fc379d349a6301baf50fb2f98d829f4ae10b1cdb7c66f4e4d8117302df7b8cd4c60405160405180910390a17f0a97a4ee45751e2abf3e4fc8946939630b11b371ea8ae39ccdc3056e98f5cc3f60036004604051610c41929190611968565b60405180910390a1565b610c5361140d565b73ffffffffffffffffffffffffffffffffffffffff16610c71610a9c565b73ffffffffffffffffffffffffffffffffffffffff1614610cc7576040517f08c379a0000000000000000000000000000000000000000000000000000000008152600401610cbe90611ad3565b60405180910390fd5b60046005811115610cdb57610cda611db2565b5b600360009054906101000a900460ff166005811115610cfd57610cfc611db2565b5b14610d3d576040517f08c379a0000000000000000000000000000000000000000000000000000000008152600401610d3490611b33565b60405180910390fd5b6005600360006101000a81548160ff02191690836005811115610d6357610d62611db2565b5b02179055507f0e5e95ff8725ab3e7a4b6b59998a4c344c2aa8d1485f5e60cb7f337768e6134760405160405180910390a17f0a97a4ee45751e2abf3e4fc8946939630b11b371ea8ae39ccdc3056e98f5cc3f60046005604051610dc7929190611968565b60405180910390a1565b610dd961140d565b73ffffffffffffffffffffffffffffffffffffffff16610df7610a9c565b73ffffffffffffffffffffffffffffffffffffffff1614610e4d576040517f08c379a0000000000000000000000000000000000000000000000000000000008152600401610e4490611ad3565b60405180910390fd5b60006005811115610e6157610e60611db2565b5b600360009054906101000a900460ff166005811115610e8357610e82611db2565b5b14610ec3576040517f08c379a0000000000000000000000000000000000000000000000000000000008152600401610eba90611a13565b60405180910390fd5b60001515600460008373ffffffffffffffffffffffffffffffffffffffff1673ffffffffffffffffffffffffffffffffffffffff16815260200190815260200160002060000160009054906101000a900460ff16151514610f59576040517f08c379a0000000000000000000000000000000000000000000000000000000008152600401610f5090611b13565b60405180910390fd5b60405180606001604052806001151581526020016000151581526020016000815250600460008373ffffffffffffffffffffffffffffffffffffffff1673ffffffffffffffffffffffffffffffffffffffff16815260200190815260200160002060008201518160000160006101000a81548160ff02191690831515021790555060208201518160000160016101000a81548160ff0219169083151502179055506040820151816001015590505050565b61101261140d565b73ffffffffffffffffffffffffffffffffffffffff16611030610a9c565b73ffffffffffffffffffffffffffffffffffffffff1614611086576040517f08c379a000000000000000000000000000000000000000000000000000000000815260040161107d90611ad3565b60405180910390fd5b6001600581111561109a57611099611db2565b5b600360009054906101000a900460ff1660058111156110bc576110bb611db2565b5b146110fc576040517f08c379a00000000000000000000000000000000000000000000000000000000081526004016110f390611af3565b60405180910390fd5b6002600360006101000a81548160ff0219169083600581111561112257611121611db2565b5b02179055507f240cb87b2e4df4c318e72bd714d45a9cad60249e883ff56b1fffd83a4595a8fa60405160405180910390a17f0a97a4ee45751e2abf3e4fc8946939630b11b371ea8ae39ccdc3056e98f5cc3f60016002604051611186929190611968565b60405180910390a1565b61119861140d565b73ffffffffffffffffffffffffffffffffffffffff166111b6610a9c565b73ffffffffffffffffffffffffffffffffffffffff161461120c576040517f08c379a000000000000000000000000000000000000000000000000000000000815260040161120390611ad3565b60405180910390fd5b600260058111156112205761121f611db2565b5b600360009054906101000a900460ff16600581111561124257611241611db2565b5b14611282576040517f08c379a000000000000000000000000000000000000000000000000000000000815260040161127990611a53565b60405180910390fd5b60038060006101000a81548160ff021916908360058111156112a7576112a6611db2565b5b02179055507f1b8e19a458c1bcd88553332c518cc5c4e2d5793e712ee766d4f1c14f672ef1f560405160405180910390a17f0a97a4ee45751e2abf3e4fc8946939630b11b371ea8ae39ccdc3056e98f5cc3f6002600360405161130b929190611968565b60405180910390a1565b61131d61140d565b73ffffffffffffffffffffffffffffffffffffffff1661133b610a9c565b73ffffffffffffffffffffffffffffffffffffffff1614611391576040517f08c379a000000000000000000000000000000000000000000000000000000000815260040161138890611ad3565b60405180910390fd5b600073ffffffffffffffffffffffffffffffffffffffff168173ffffffffffffffffffffffffffffffffffffffff161415611401576040517f08c379a00000000000000000000000000000000000000000000000000000000081526004016113f8906119d3565b60405180910390fd5b61140a81611415565b50565b600033905090565b60008060009054906101000a900473ffffffffffffffffffffffffffffffffffffffff169050816000806101000a81548173ffffffffffffffffffffffffffffffffffffffff021916908373ffffffffffffffffffffffffffffffffffffffff1602179055508173ffffffffffffffffffffffffffffffffffffffff168173ffffffffffffffffffffffffffffffffffffffff167f8be0079c531659141344cd1fd0a4f28419497f9722a3daafe3b4186f6b6457e060405160405180910390a35050565b8280546114e590611cd7565b90600052602060002090601f016020900481019282611507576000855561154e565b82601f1061152057805160ff191683800117855561154e565b8280016001018555821561154e579182015b8281111561154d578251825591602001919060010190611532565b5b50905061155b919061155f565b5090565b5b80821115611578576000816000905550600101611560565b5090565b600061158f61158a84611bb3565b611b8e565b9050828152602081018484840111156115ab576115aa611e44565b5b6115b6848285611c95565b509392505050565b6000813590506115cd81612128565b92915050565b600082601f8301126115e8576115e7611e3f565b5b81356115f884826020860161157c565b91505092915050565b6000813590506116108161213f565b92915050565b60006020828403121561162c5761162b611e4e565b5b600061163a848285016115be565b91505092915050565b60006020828403121561165957611658611e4e565b5b600082013567ffffffffffffffff81111561167757611676611e49565b5b611683848285016115d3565b91505092915050565b6000602082840312156116a2576116a1611e4e565b5b60006116b084828501611601565b91505092915050565b6116c281611c34565b82525050565b6116d181611c83565b82525050565b60006116e282611be4565b6116ec8185611bef565b93506116fc818560208601611ca4565b61170581611e53565b840191505092915050565b600061171d600c83611bef565b915061172882611e64565b602082019050919050565b6000611740602683611bef565b915061174b82611e8d565b604082019050919050565b6000611763601683611bef565b915061176e82611edc565b602082019050919050565b6000611786601f83611bef565b915061179182611f05565b602082019050919050565b60006117a9601583611bef565b91506117b482611f2e565b602082019050919050565b60006117cc602283611bef565b91506117d782611f57565b604082019050919050565b60006117ef601d83611bef565b91506117fa82611fa6565b602082019050919050565b6000611812601e83611bef565b915061181d82611fcf565b602082019050919050565b6000611835601f83611bef565b915061184082611ff8565b602082019050919050565b6000611858602083611bef565b915061186382612021565b602082019050919050565b600061187b602483611bef565b91506118868261204a565b604082019050919050565b600061189e601b83611bef565b91506118a982612099565b602082019050919050565b60006118c1601b83611bef565b91506118cc826120c2565b602082019050919050565b60006118e4601683611bef565b91506118ef826120eb565b602082019050919050565b61190381611c79565b82525050565b600060208201905061191e60008301846116b9565b92915050565b600060408201905061193960008301856116b9565b61194660208301846118fa565b9392505050565b600060208201905061196260008301846116c8565b92915050565b600060408201905061197d60008301856116c8565b61198a60208301846116c8565b9392505050565b600060208201905081810360008301526119ab81846116d7565b905092915050565b600060208201905081810360008301526119cc81611710565b9050919050565b600060208201905081810360008301526119ec81611733565b9050919050565b60006020820190508181036000830152611a0c81611756565b9050919050565b60006020820190508181036000830152611a2c81611779565b9050919050565b60006020820190508181036000830152611a4c8161179c565b9050919050565b60006020820190508181036000830152611a6c816117bf565b9050919050565b60006020820190508181036000830152611a8c816117e2565b9050919050565b60006020820190508181036000830152611aac81611805565b9050919050565b60006020820190508181036000830152611acc81611828565b9050919050565b60006020820190508181036000830152611aec8161184b565b9050919050565b60006020820190508181036000830152611b0c8161186e565b9050919050565b60006020820190508181036000830152611b2c81611891565b9050919050565b60006020820190508181036000830152611b4c816118b4565b9050919050565b60006020820190508181036000830152611b6c816118d7565b9050919050565b6000602082019050611b8860008301846118fa565b92915050565b6000611b98611ba9565b9050611ba48282611d09565b919050565b6000604051905090565b600067ffffffffffffffff821115611bce57611bcd611e10565b5b611bd782611e53565b9050602081019050919050565b600081519050919050565b600082825260208201905092915050565b6000611c0b82611c79565b9150611c1683611c79565b925082821015611c2957611c28611d83565b5b828203905092915050565b6000611c3f82611c59565b9050919050565b6000819050611c5482612114565b919050565b600073ffffffffffffffffffffffffffffffffffffffff82169050919050565b6000819050919050565b6000611c8e82611c46565b9050919050565b82818337600083830152505050565b60005b83811015611cc2578082015181840152602081019050611ca7565b83811115611cd1576000848401525b50505050565b60006002820490506001821680611cef57607f821691505b60208210811415611d0357611d02611de1565b5b50919050565b611d1282611e53565b810181811067ffffffffffffffff82111715611d3157611d30611e10565b5b80604052505050565b6000611d4582611c79565b91507fffffffffffffffffffffffffffffffffffffffffffffffffffffffffffffffff821415611d7857611d77611d83565b5b600182019050919050565b7f4e487b7100000000000000000000000000000000000000000000000000000000600052601160045260246000fd5b7f4e487b7100000000000000000000000000000000000000000000000000000000600052602160045260246000fd5b7f4e487b7100000000000000000000000000000000000000000000000000000000600052602260045260246000fd5b7f4e487b7100000000000000000000000000000000000000000000000000000000600052604160045260246000fd5b600080fd5b600080fd5b600080fd5b600080fd5b6000601f19601f8301169050919050565b7f4d61782050726f706f73616c0000000000000000000000000000000000000000600082015250565b7f4f776e61626c653a206e6577206f776e657220697320746865207a65726f206160008201527f6464726573730000000000000000000000000000000000000000000000000000602082015250565b7f596f75277265206e6f742077686974656c697374656400000000000000000000600082015250565b7f57686974656c69737420766f74657273206973206e6f74207374617274656400600082015250565b7f566f74657320617265206e6f742074616c6c6965640000000000000000000000600082015250565b7f50726f706f73616c20726567697374726174696f6e206973206e6f7420656e6460008201527f6564000000000000000000000000000000000000000000000000000000000000602082015250565b7f566f74696e672073657373696f6e206973206e6f742073746172746564000000600082015250565b7f50726f706f73616c20726567697374726174696f6e20697320656e6465640000600082015250565b7f5265676973746572696e6720766f74657273206973206e6f7420656e64656400600082015250565b7f4f776e61626c653a2063616c6c6572206973206e6f7420746865206f776e6572600082015250565b7f50726f706f73616c20726567697374726174696f6e206973206e6f742073746160008201527f7274656400000000000000000000000000000000000000000000000000000000602082015250565b7f4164647265737320616c72656164792077686974656c69737465640000000000600082015250565b7f566f74696e672073657373696f6e206973206e6f7420656e6465640000000000600082015250565b7f596f75206861766520616c726561647920766f74656400000000000000000000600082015250565b6006811061212557612124611db2565b5b50565b61213181611c34565b811461213c57600080fd5b50565b61214881611c79565b811461215357600080fd5b5056fea2646970667358221220c28d4af913e3594d6696fa4e906c97dc2467b797e90451bae0b51ff32202887164736f6c63430008070033",
  "immutableReferences": {},
  "source": "// SPDX-License-Identifier: MIT\r\n\r\npragma solidity 0.8.7;\r\nimport \"../node_modules/@openzeppelin/contracts/access/Ownable.sol\";\r\n\r\n//Smart Contract Voting\r\ncontract Voting is Ownable{\r\n\r\n    //Structs\r\n    //Votant\r\n    struct Voter {  \r\n        bool isRegistered;      // Votant enregistr ou non\r\n        bool hasVoted;          // A dj vot ou non\r\n        uint votedProposalId;   // Id de la proposition auquel il  vot\r\n    }\r\n\r\n    //Proposition\r\n    struct Proposal { \r\n        string description;     // Description de la proposition\r\n        uint voteCount;         // Nombre de votes de la proposition\r\n    }\r\n\r\n    //Enums\r\n    //Statut du vote\r\n    enum WorkflowStatus { \r\n        RegisteringVoters,\r\n        ProposalsRegistrationStarted,\r\n        ProposalsRegistrationEnded,\r\n        VotingSessionStarted,\r\n        VotingSessionEnded,\r\n        VotesTallied\r\n    }\r\n\r\n    //uints\r\n    uint private winningProposalId;     //Id de la proposition gagnante\r\n    uint private proposalId;            //Id de la proposition courante\r\n    \r\n    //status\r\n    WorkflowStatus public status;       //Statut du vote\r\n    \r\n    //Events\r\n    event VoterRegistered(address voterAddress);\r\n    event ProposalsRegistrationStarted();\r\n    event ProposalsRegistrationEnded();\r\n    event ProposalRegistered(uint proposalId);\r\n    event VotingSessionStarted();\r\n    event VotingSessionEnded();\r\n    event Voted (address voter, uint proposalId);\r\n    event VotesTallied();\r\n    event WorkflowStatusChange(WorkflowStatus previousStatus, WorkflowStatus newStatus);\r\n\r\n    //Mappings\r\n    mapping(address => Voter) private whitelist;    // Liste blanche de tous les votants\r\n    mapping(uint => Proposal) private proposals;    // Liste de toutes les propositions enregistres\r\n\r\n    //Functions\r\n    /** @dev Ajoute une adresse  la liste blanche\r\n     *  @param _address Adresse  ajouter  la liste blanche\r\n     */\r\n    function whitelistVoter(address _address) public onlyOwner { \r\n        require(status == WorkflowStatus.RegisteringVoters, \"Whitelist voters is not started\");\r\n        require(whitelist[_address].isRegistered == false, \"Address already whitelisted\");\r\n        whitelist[_address] = Voter(true,false,0);\r\n    }\r\n\r\n    /** @dev Dbute la phase d'enregistrement des propositions\r\n     */\r\n    function startProposalRegistration() public onlyOwner {\r\n        require(status != WorkflowStatus.ProposalsRegistrationEnded, \"Proposal registration is ended\");\r\n        require(status == WorkflowStatus.RegisteringVoters, \"Registering voters is not ended\");\r\n        status = WorkflowStatus.ProposalsRegistrationStarted;\r\n        emit ProposalsRegistrationStarted();\r\n        emit WorkflowStatusChange(WorkflowStatus.RegisteringVoters, WorkflowStatus.ProposalsRegistrationStarted);\r\n    }\r\n\r\n    /** @dev Ajoute une proposition  la liste\r\n     *  @param description Description de la proposition  ajouter\r\n     */\r\n    function addProposal(string memory description) external {\r\n        require(status == WorkflowStatus.ProposalsRegistrationStarted, \"Proposal registration is not started\");\r\n        require(whitelist[msg.sender].isRegistered == true, \"You're not whitelisted\");\r\n        require(proposalId<=2^256-1,\"Max Proposal\");\r\n        proposals[proposalId] = Proposal(description,0);\r\n        proposalId++;\r\n        emit ProposalRegistered(proposalId-1);\r\n    }\r\n\r\n    /** @dev Termine la phase d'enregistrement des propositions\r\n     */\r\n    function endProposalRegistration() public onlyOwner {\r\n        require(status == WorkflowStatus.ProposalsRegistrationStarted, \"Proposal registration is not started\");\r\n        status = WorkflowStatus.ProposalsRegistrationEnded;\r\n        emit ProposalsRegistrationEnded();\r\n        emit WorkflowStatusChange(WorkflowStatus.ProposalsRegistrationStarted, WorkflowStatus.ProposalsRegistrationEnded);\r\n    }\r\n\r\n\r\n    /** @dev Dbute la phase de vote\r\n     */\r\n    function startVotingSession() public onlyOwner {\r\n        require(status == WorkflowStatus.ProposalsRegistrationEnded, \"Proposal registration is not ended\");\r\n        status = WorkflowStatus.VotingSessionStarted;\r\n        emit VotingSessionStarted();\r\n        emit WorkflowStatusChange(WorkflowStatus.ProposalsRegistrationEnded, WorkflowStatus.VotingSessionStarted);\r\n    }\r\n\r\n    /** @dev Enregistrement d'un vote\r\n     *  @param proposalIndex ID de la proposition vote\r\n     */\r\n    function vote(uint proposalIndex) external{\r\n        require(status == WorkflowStatus.VotingSessionStarted, \"Voting session is not started\");\r\n        require(true == whitelist[msg.sender].isRegistered,\"You're not whitelisted\");\r\n        require(false == whitelist[msg.sender].hasVoted,\"You have already voted\");\r\n        whitelist[msg.sender].votedProposalId = proposalIndex;\r\n        whitelist[msg.sender].hasVoted = true;\r\n        proposals[proposalIndex].voteCount++;\r\n\r\n        if(proposals[proposalIndex].voteCount >= proposals[winningProposalId].voteCount){\r\n            winningProposalId = proposalIndex;\r\n        }\r\n        emit Voted(msg.sender, proposalIndex);\r\n    }\r\n\r\n    /** @dev Termine la phase de vote\r\n     */\r\n    function endVotingSession() public onlyOwner {\r\n        require(status == WorkflowStatus.VotingSessionStarted, \"Voting session is not started\");\r\n        status = WorkflowStatus.VotingSessionEnded;\r\n        emit VotingSessionEnded();\r\n        emit WorkflowStatusChange(WorkflowStatus.VotingSessionStarted, WorkflowStatus.VotingSessionEnded);\r\n    }\r\n\r\n    /** @dev Calcule le rsultat final (la proposition gagnante)\r\n     */\r\n    function votesCalculation() public onlyOwner {\r\n        require(status == WorkflowStatus.VotingSessionEnded, \"Voting session is not ended\");\r\n        status = WorkflowStatus.VotesTallied;\r\n        emit VotesTallied();\r\n        emit WorkflowStatusChange(WorkflowStatus.VotingSessionEnded, WorkflowStatus.VotesTallied);\r\n    }\r\n\r\n    /** @dev Renvoie les informations de la proposition gagnante\r\n     *  @return description La description de la proposition gagnante\r\n     */\r\n    function getWinnerInfo() public view returns (string memory description){\r\n        require(status == WorkflowStatus.VotesTallied, \"Votes are not tallied\");\r\n        return proposals[winningProposalId].description;\r\n    }\r\n\r\n}",
  "sourcePath": "D:\\Users\\Thomas\\Documents\\GitHub\\Alyra\\voting-react\\contracts\\Voting.sol",
  "compiler": {
    "name": "solc",
    "version": "0.8.7+commit.e28d00a7.Emscripten.clang"
  },
  "schemaVersion": "3.4.3",
  "updatedAt": "2021-10-02T15:34:57.580Z",
  "networkType": "ethereum",
  "devdoc": {
    "kind": "dev",
    "methods": {
      "addProposal(string)": {
        "details": "Ajoute une proposition  la liste",
        "params": {
          "description": "Description de la proposition  ajouter"
        }
      },
      "endProposalRegistration()": {
        "details": "Termine la phase d'enregistrement des propositions"
      },
      "endVotingSession()": {
        "details": "Termine la phase de vote"
      },
      "getWinnerInfo()": {
        "details": "Renvoie les informations de la proposition gagnante",
        "returns": {
          "description": "La description de la proposition gagnante"
        }
      },
      "owner()": {
        "details": "Returns the address of the current owner."
      },
      "renounceOwnership()": {
        "details": "Leaves the contract without owner. It will not be possible to call `onlyOwner` functions anymore. Can only be called by the current owner. NOTE: Renouncing ownership will leave the contract without an owner, thereby removing any functionality that is only available to the owner."
      },
      "startProposalRegistration()": {
        "details": "Dbute la phase d'enregistrement des propositions"
      },
      "startVotingSession()": {
        "details": "Dbute la phase de vote"
      },
      "transferOwnership(address)": {
        "details": "Transfers ownership of the contract to a new account (`newOwner`). Can only be called by the current owner."
      },
      "vote(uint256)": {
        "details": "Enregistrement d'un vote",
        "params": {
          "proposalIndex": "ID de la proposition vote"
        }
      },
      "votesCalculation()": {
        "details": "Calcule le rsultat final (la proposition gagnante)"
      },
      "whitelistVoter(address)": {
        "details": "Ajoute une adresse  la liste blanche",
        "params": {
          "_address": "Adresse  ajouter  la liste blanche"
        }
      }
    },
    "version": 1
  },
  "userdoc": {
    "kind": "user",
    "methods": {},
    "version": 1
  }
}